:020000040800F2
:100000003007002045010008E30E0008F90D000844
:10001000E10E0008990C00085518000800000000C7
:10002000000000000000000000000000D3110008E4
:100030009B0C0008000000005D0F0008A5120008DE
:100040005F0100085F0100085F0100085F01000810
:100050005F0100085F0100085F0100085F01000800
:100060005F0100085F0100085F0100085F010008F0
:100070005F0100085F0100085F0100085F010008E0
:100080005F0100085F0100085F0100085F010008D0
:100090005F0100085F0100085F0100085F010008C0
:1000A0005F0100085F0100085F0100085F010008B0
:1000B0005F0100085F0100085F0100085F010008A0
:1000C0005F0100085F0100085F0100085F01000890
:1000D0005F010008991600085F0100085F01000831
:1000E0005F0100085F0100085F0100085F01000870
:1000F0005F0100085F0100085F0100085F01000860
:100100005F0100085F0100085F0100085F0100084F
:100110005F0100085F0100085F0100085F0100083F
:100120005F0100085F0100085F0100085F0100082F
:10013000DFF80CD000F0EEFB00480047E921000892
:10014000300700200648804706480047FEE7FEE7E4
:10015000FEE7FEE7FEE7FEE7FEE7FEE7FEE7FEE777
:10016000A912000831010008F0B480EA0102D40F9E
:100170004200B2EB410F02D20246084611464A0045
:1001800042D0C30DDDB2C1F3C752AD1A202D35DA0E
:10019000C1F3160141F4000204B15242C5F1200638
:1001A00002FA06F12A411044B3EBD05F23D0C4B168
:1001B000012DA0EBC35009DCF0BC4FF0004202EA75
:1001C000C352DBB200F5000000F0E9BA400000F1D4
:1001D000807000EBC350A0F1807040EAD1704900FC
:1001E00009E0490841EAC071A0EBC35000F50000E6
:1001F000400800EBC350F0BC00F0C8BA61420122D5
:1002000002EB4101001BF6E7F0BC704781F00041B2
:10021000AAE780F00040A7E780EA010210B502F0EB
:100220000043400022D04A001FD0010E01EB1261B2
:10023000C0F35600C2F3560240F4000042F400023C
:10024000A0FB022000047F39140400D0401C50EAB7
:10025000124001D44000491EC2B20C0604EBD0107B
:10026000401C4008802A02D003E0002010BD20F08E
:100270000100002900DA0020184310BD30B480EAE4
:10028000010202F0004530F0004221F0004013D09E
:1002900090B1C30DD40DC2F31601C0F31600E41AD9
:1002A00041F4000140F400027D34914201D3641C0A
:1002B00000E04900002C02DA30BC002070474FF407
:1002C00000000023914201D3891A034340084FEAFA
:1002D0004101F7D151B1914202D14FF0004105E007
:1002E00002D24FF0010101E06FF0010103EBC450B5
:1002F000284430BC00F04ABA2DE9FE4F804681EA1E
:100300000300C00F0C46009021F0004123F000458F
:10031000B8EB0200A94105D24046214690461C4652
:100320000B46024623F00040104347D0270DC7F389
:100330000A00C3F30A510290401A019040286BDA78
:10034000C3F3130040F4801B0098924620B10023B1
:10035000D2EB030A63EB0B0B01985946C0F1400244
:10036000504600F0F2F906460D4650465946019AAD
:1003700000F0FAF910EB08006141002487EA1152FD
:1003800084EAE7731A4340D0009A62B3019A012AC3
:100390004FEA075215DC001B61EB02014FF00042EF
:1003A00002EA0752CDE90042001C41F580113246B5
:1003B0002B4600F031FA03B0BDE8F08F40462146ED
:1003C000F9E7001B61EB0201001C41F580130018E6
:1003D0005B412018A2F5001747EB030140EAD570F6
:1003E000B6196D4111E06D084FEA360645EAC07551
:1003F0004FEA0752001B61EB0201001C41F580111E
:1004000049084FEA30000019514132462B4603B0EB
:10041000BDE8F04F00F0F1B9009801224000002340
:10042000D0EB020263EBE073009821464FEAE074E0
:10043000B8EB000061EB0401E9E783F000435BE700
:1004400081F0004158E72DE9FE4F81EA030404F0F2
:10045000004421F0004100944FF0000B23F00043D2
:1004600050EA01045ED052EA03045BD0C3F30A549D
:10047000C1F30A552C44A4F2F3340194A0FB0254B6
:10048000C1F3130141F48011C3F3130343F4801348
:1004900001FB024400FB034E840A970A44EA81549C
:1004A00047EA8357A4FB076802958D0A05FB078579
:1004B0004FEA932C04FB0C542705029D4FEA065883
:1004C00047EA1637B5EB08056EEB070C870E920E60
:1004D00047EA811742EA8312A7FB0201B6EB0B0140
:1004E00064EB00042B0D43EA0C335E1844EB1C5004
:1004F000DA465146E7FB0201C5F313044FEA0B331A
:1005000043EA14534FEA0432019C43EA0603A4F180
:100510000C040294009CCDE900B400F07DF903B016
:10052000BDE8F08F00200146F9E72DE9F04D81EAA2
:10053000030404F0004B21F0004514464FF0000A7C
:1005400023F0004150EA050220D054EA01021DD0F8
:10055000C5F30A570246C5F31303C1F31300C1F3F1
:100560000A5640F4801543F48013A7EB0608101BCD
:10057000D64608F2FD3873EB050002D308F10108F6
:1005800001E092185B41B8F1000F03DA0020014648
:10059000BDE8F08D00204FF48011064684460EE041
:1005A000171B73EB050705D3121B63EB050306430B
:1005B0004CEA010C49084FEA300092185B4150EABE
:1005C0000107EDD152EA030012D082EA040083EA67
:1005D0000501084305D0101BAB4106D201220023C0
:1005E00006E000224FF0004302E06FF001025310DA
:1005F0001AEB06004CEB085110EB0A0041EB0B0123
:10060000BDE8F04D00F0F9B8C10F80EAE070084491
:10061000CA079623002100F0C2B80EB540F233415C
:1006200002910021CDE900110A460B4600F0F4F8D2
:1006300003B000BD00F0004230F000400AD0C10D10
:1006400001F56071C0F3160042EA0151C20840078B
:100650001143704700200146704701F0004330B459
:1006600021F0004150EA010206D00A0DA2F56072A5
:10067000C1F31301002A02DC30BC00207047440F94
:1006800044EAC104C100E01830BC00EBC25000F0E5
:100690007DB80000002801DBC0F10040002901DB2B
:1006A000C1F1004181427047002801DBC0F10040E8
:1006B000002901DBC1F100418842704730B50B468B
:1006C000014600202022012409E021FA02F59D4282
:1006D00005D303FA02F5491B04FA02F52844151E56
:1006E000A2F10102F1DC30BD2DE9F05F05460020EA
:1006F00092469B4688460646814640241BE0284693
:1007000041464746224600F017F953465A46C01A5A
:10071000914110D311461846224600F016F82D1AC2
:1007200067EB01084F4622460120002100F00DF83A
:1007300017EB00094E41201EA4F10104DFDC4846FE
:1007400031462A464346BDE8F09F202A04DB203A82
:1007500000FA02F1002070479140C2F1200320FA14
:1007600003F3194390407047202A06DBCB17203A49
:1007700041FA02F043EAE07306E041FA02F3D040A6
:10078000C2F1200291400843194670470029A8BFD2
:100790007047401C490008BF20F00100704710B4AA
:1007A000B0FA80FC00FA0CF050EA010404BF10BC5F
:1007B000704749B1CCF1200421FA04F411FA0CF18C
:1007C00018BF012121430843A3EB0C01CB1D4FEAC5
:1007D00000614FEA102042BF002010BC704700EBC0
:1007E000C35010440029A4BF10BC7047401C4900EE
:1007F00008BF20F0010010BC704710B5141E73F143
:10080000000408DA401C41F1000192185B411A43D0
:1008100001D120F0010010BD2DE9F04D92469B461C
:1008200011B1B1FA81F202E0B0FA80F220329046C2
:10083000FFF78BFF04460F4640EA0A0041EA0B012E
:1008400053465A46084313D0114653EA010019D0C3
:10085000C8F14002504600F06FF805460E4650467B
:1008600059464246FFF771FF084305D0012004E0D6
:1008700020463946BDE8F08D0020054346EAE07683
:100880002C4337430A986305E40AA0EB08000022D2
:10089000FD0A44EA47540A3002D500200146E9E740
:1008A000010510196941DDE9084500196941BDE8F4
:1008B000F04DA2E7C1F30A52C1F3130140F2FF3336
:1008C00041F480119A4202DA00200146704740F25A
:1008D00033439A42A2F2334202DC524200F02CB877
:1008E000FFF733BF30B5041E71F1000404DB4FF095
:1008F0000044404264EB0101141E73F1000405DB67
:100900001C464FF00043524263EB0403994208BF78
:10091000904230BD064C074D06E0E06840F0010310
:1009200094E8070098471034AC42F6D3FFF704FC74
:100930001423000834230008202A04DB203A21FA7B
:1009400002F00021704721FA02F3D040C2F12002E8
:10095000914008431946704770B58D1810F8014B47
:1009600014F0030201D110F8012B231106D110F865
:10097000013B03E010F8016B01F8016B521EF9D145
:10098000ABB110F8012B04F00C048A1A0C2C03D024
:10099000A2EB84129B1C08E010F8014BA2EB04228E
:1009A000F8E712F8014B01F8014B5B1EF9D5A9429B
:1009B000D4D3002070BD00002DE9F04705460C4659
:1009C000FE2000F037F9F421002000F047F9F02074
:1009D00000F030F9142001F0E1FB4FF004084FF073
:1009E0000809114F4FF400663146384600F0B0F95F
:1009F000502000F0EDF8032000F0EAF8404600F047
:100A0000E7F8484600F0E4F8284600F0E1F8204610
:100A100000F0DEF83146384600F09CF9BDE8F047BA
:100A2000322001F0BBBB000000100140F8B50121ED
:100A3000112000F0C1FA4FF42040ADF8000010255D
:100A40008DF8035003248DF80240234E694630464A
:100A500000F024F94FF42051ADF800108DF8035048
:100A60008DF802401D4D6946284600F017F94FF4F5
:100A70008040ADF8000004208DF803008DF802409E
:100A80006946304600F00AF96815ADF800002820E4
:100A90008DF803008DF802406946284600F0FEF804
:100AA0006C142146284600F053F9012001F05CFB4C
:100AB0002146284600F04EF9642001F055FBA110B4
:100AC000284600F047F92146304600F041F9A100E0
:100AD000304600F03FF9F8BD000C01400010014025
:100AE00070B50146012000F0B9F8FC2000F0A2F832
:100AF000002000F09FF8064D4FF400742146284670
:100B000000F01FF90028F9D1BDE8704000F010B8DE
:100B10000010014010B588B00446082040EA441097
:100B2000C0B2FFF7DDFF4DF8240008B010BD000093
:100B300070B50E4E4FF400652946304600F008F9B6
:100B4000012000F045F8012001F028FB00F010F82A
:100B5000040400F00DF804EB002400F009F804444C
:100B60002946304600F0F6F8204670BD00100140DE
:100B70002DE9F0410024012001F010FB012001F0DB
:100B80000DFB0025114F4FF400564FF480483146BD
:100B9000384600F0DFF8012001F000FB6006040E8B
:100BA0003146384600F0D4F84146384600F0C9F8DE
:100BB000012801D1641CE4B2012001F0EFFA6D1CA0
:100BC000EDB2082DE3D32046BDE8F081000C0140D2
:100BD0002DE9F0410546012001F0E0FA012001F085
:100BE000DDFA0024124E4FF400487714280604D58D
:100BF0004146304600F0AEF803E04146304600F092
:100C0000A7F83946304600F0A5F8012001F0C6FAF1
:100C10006806050E3946304600F09AF8012001F0CA
:100C2000BDFA641CE4B2082CE0D3BDE8F0810000FA
:100C3000000C014070B50646074D4FF40064214694
:100C4000284600F085F83046FFF7C2FF21462846C7
:100C5000BDE8704000F07EB8001001402DE9F04181
:100C600004460F460B4E4FF400652946304600F00F
:100C70006FF844F05000FFF7ABFF0020FFF7A8FF2C
:100C80003846FFF7A5FF29463046BDE8F04100F0A1
:100C900061B8000000100140FEE770472DE9F04107
:100CA0000022CC7804F00F03E40601D58C782343AE
:100CB0000C784FF00F0714F0FF0F4FF0010C1CD011
:100CC00005680CFA02F40E882640A64211D196005F
:100CD00007FA06F825EA080503FA06F848EA0505C2
:100CE000CE78282E02D0482E02D002E0446100E0E7
:100CF0000461521C082AE4D305600A88FF2A1ED921
:100D00004568002202F108060CFA06F40E88264017
:100D1000A64210D1960007FA06F825EA080503FA5C
:100D200006F848EA0505CE78282E00D14461CE7831
:100D3000482E00D10461521C082AE3D34560BDE867
:100D4000F0810246002092680A4200D001207047DC
:100D500041617047016170472DE9F0410746174E28
:100D6000002438463168FFF795FC23D83846D6F87A
:100D70003012FFF799FC1DD23A468D21304600F023
:100D80003CF80446204600F01BF8804656F82450F4
:100D9000641C294656F82400FFF738FA0446294611
:100DA0003846FFF733FA2146FFF768FA4146FFF766
:100DB000DBF904462046BDE8F08100001400002065
:100DC0001438FFF721BC000070B5094C002000F07A
:100DD0005DF8054629462046FFF718FA04460548FF
:100DE0002946FFF719FA2146BDE87040FFF746BAD9
:100DF0003333534000002041FEE72DE9F04706461B
:100E00008946924600270024A046A9F1010085B238
:100E100050463168FFF748FC02D80020BDE8F08753
:100E200056F825105046FFF735FC26D8E8B2F5E70E
:100E300078194408504656F82410FFF72BFC1ED0B2
:100E400056F824105046FFF725FC06D2601C56F8D1
:100E500020105046FFF728FC11D356F824105046B6
:100E6000FFF722FC01D2254600E02746404608F164
:100E7000010808F0FF08484501D8AF42D8D3AF4277
:100E800001D90020CAE7E0B2C8E7000010B598B069
:100E900004462046FFF73EFE10A941F8240008A9A9
:100EA00080F4000041F82400FFF7B7FB084A094B23
:100EB000FFF7C9FA0022084BFFF7BFFA0022074BE1
:100EC000FFF733FBFFF7C9FB4DF8240018B010BD46
:100ED0000C207C28D112E33FD012534180842E4154
:100EE000FEE7704770B50F23C27801260178002A0B
:100EF0001ED0144A126802F4E062C2F5E062120ADF
:100F0000C2F10404D3404578A54082781A402A43B0
:100F1000120101F1E02181F80024007800F01F01A6
:100F20008E404009800000F1E020C0F8006170BDF3
:100F300001F01F0086404809800000F1E020C0F861
:100F4000806170BD0CED00E0024908430249086071
:100F5000704700000000FA050CED00E0704710B586
:100F600001F0E4F84FF4A060FFF7EEFF4FF4E1303A
:100F700001F080F900F084F8FFF758FD822100208D
:100F8000FFF71AFD072140F2833000F0B5F9BDE804
:100F900010404FF4FA7001F0E7B80000054A00294C
:100FA00003D0D1690143D1617047D1698143D161D7
:100FB0007047000000100240054A002903D09169E3
:100FC00001439161704791698143916170470000CD
:100FD0000010024010B5264A516801F00C01254B63
:100FE000002927D0042927D0082927D00360516879
:100FF00001F0F0010909204B5C5C0168E1404160AF
:10100000546804F4E064240A1C5D21FA04F484604A
:10101000546804F46054E40A1B5DD940C16052680E
:1010200002F44042920B144B1B1F9A5CB1FBF2F18D
:10103000016110BD0360DAE70360D8E7516801F48D
:101040007011536803F48033022404EB914133B1EF
:1010500053689B0307D5094B59430160C7E7074B0A
:1010600059430160C3E7034B59430160BFE70000E8
:101070000010024000127A005802002000093D00D2
:1010800030B587B001210820FFF796FF01218803C2
:10109000FFF784FF4FF46044ADF8184018208DF836
:1010A0001B0003208DF81A00184D06A92846FFF7EB
:1010B000F5FD21462846FFF74DFE0020ADF804005F
:1010C0004FF48271ADF80610ADF808000221ADF8BA
:1010D0000A100121ADF80C104902ADF80E103821AC
:1010E000ADF81010ADF812000720ADF81400084C50
:1010F00001A9204600F051F80121204600F036F801
:10110000FF2000F007F807B030BD0000000C0140E0
:101110000038004070B505460024134E05E0641CFD
:10112000E4B2C82C01D9002070BD0221304600F085
:1011300029F80028F3D029463546284600F02BF838
:10114000002405E0641CE4B2C82C01D9002070BD65
:101150000121284600F016F80028F3D0284600F0B8
:1011600018F8C0B270BD000000380040002904D05B
:10117000018841F0400101807047018821F0400161
:10118000018070470246002012890A4200D00120E7
:101190007047808970478181704730B5028802F4BA
:1011A00041530A884C88CD8822438C882C432243A3
:1011B0000C8922434C8922438C892243CC892243C7
:1011C0001A430280828B22F400628283098A0182A0
:1011D00030BD7047AFF300800CB500220192009241
:1011E0002748016841F4803101604FF4A063016831
:1011F00001F4003100910199491C0191009911B944
:1012000001999942F3D10168890302D50121009126
:1012100000E000920099012930D11A490A6842F091
:1012200010020A600A6822F003020A600A6842F0AB
:1012300002020A604168416041684160416841F4CE
:1012400080614160416821F47C114160416841F452
:10125000E8114160016841F0807101600168890115
:10126000FCD5416821F003014160416841F0020171
:1012700041604168C1F381010229FAD10CBD00002F
:1012800000100240002002404FF0E021042804D06A
:10129000086920F0040008617047086940F0040004
:1012A000086170477047000010B50F48016841F0B1
:1012B0000101016041680D4A1140416001680C4A1A
:1012C00011400160016821F480210160416821F42E
:1012D000FE0141604FF41F018160FFF77BFF05496C
:1012E0004FF00060086010BD001002400000FFF8E1
:1012F000FFFFF6FE08ED00E030B589B004460D466C
:1013000001210846FFF74AFE01210420FFF754FEA1
:101310000F22ADF8202018228DF8232003228DF80B
:10132000222008A91F48FFF7B9FCADF81840ADF816
:1013300014500024ADF81A40ADF816404FF0804527
:1013400005A9284600F05AF97021ADF804100121D2
:10135000ADF80610ADF80C4001A9284600F030F8B1
:1013600001A9284600F076F801A9284600F0C0F847
:1013700001A9284600F004F90821284600F064F885
:101380000821284600F0AAF80821284600F0F2F8C3
:101390000821284600F028F90121284600F004F829
:1013A00009B030BD00080140002904D0018841F097
:1013B000010101807047018821F00101018070471F
:1013C00030B5028C22F001020284028C8388048BE7
:1013D00024F0700424F003050C882C4322F0020250
:1013E0000D8915434A882A43124DA8420BD0124D4D
:1013F000A84208D0114DA84205D0114DA84202D0F4
:10140000104DA8420FD122F008054A892A4322F044
:1014100004058A882A4323F4807323F400738D899A
:101420001D43CB892B4383800483C9888186028432
:1014300030BD0000002C014000340140004001405C
:101440000044014000480140028B22F008020A4398
:101450000283704770B5028C22F010020284028C65
:101460008388048B24F4E04424F440760D884FF6FE
:10147000FF7404EA0525354322F020020E8904EAB0
:10148000061616434A8804EA02123243114EB0424D
:1014900002D0114EB04217D122F080024E8904EAE8
:1014A0000616164326F040068A8804EA02123243E2
:1014B00023F4806323F400638E8904EA86061E43C6
:1014C000CB8904EA8303334383800583C98801877A
:1014D000028470BD002C014000340140028B22F4D4
:1014E00000624FF6FF7303EA012111430183704745
:1014F00070B5028C22F480720284028C8388848B03
:1015000024F0700424F003040D88254322F40072B3
:101510000E894FF6FF7404EA062616434A8804EA49
:1015200002223243114EB04202D0114EB04217D1C6
:1015300022F400664A8904EA0222324322F48066D9
:101540008A8804EA0222324323F4805323F40053AE
:101550008E8904EA06161E43CB8904EA031333433B
:1015600083808583C9888187028470BD002C0140F7
:1015700000340140828B22F008020A4382837047C4
:1015800070B5028C22F480520284058C8288838B91
:1015900023F4E04323F440760C884FF6FF7303EA0C
:1015A0000424344325F400550E8903EA06362E43FD
:1015B0004D8803EA05353543094EB04202D0094E45
:1015C000B04205D122F480468A8903EA821232436E
:1015D00082808483C988A0F84010058470BD000013
:1015E000002C014000340140828B22F400624FF64F
:1015F000FF7303EA012111438183704730B50288EC
:101600001B4C1C4DA0420DD0A8420BD0B0F1804F16
:1016100008D0194B984205D0184B984202D0184B6D
:10162000984203D122F070034A881A43154B98421E
:1016300006D0154B984203D022F44073CA881A434F
:1016400002808A8882850A880285A0420AD0A84240
:1016500008D00E4A904205D00D4A904202D00D4A61
:10166000904201D1097A01860121818230BD0000BA
:10167000002C0140003401400004004000080040FC
:10168000000C0040001000400014004000400140E9
:10169000004401400048014070B5164C40F225510D
:1016A000204600F039F800280ED0204600F0CEF891
:1016B000C1B2114A1088030406D444044FF0000359
:1016C00007D50A2901D0138070BD40F40040108076
:1016D00070BD0D290AD0094DC0F30D042955401CD9
:1016E00080B21080C728F3D9138070BD40F48040C9
:1016F000108070BD003801404C02002068020020BC
:10170000002904D0818941F4005181817047818989
:1017100021F400518181704770B5002440F66A12AF
:10172000C1F3421301F01F05012606FA05F2012B51
:101730000CD0022B0DD0838A1340090A8E400088FA
:1017400030400BB100B10124204670BD83891340A5
:10175000F3E7038A1340F0E710B540F66A13C1F3CC
:10176000421301F01F040121A140012B07D0022BDD
:1017700007D014303AB102680A43026010BD0C3041
:10178000F8E71030F6E702688A43026010BD0000F7
:1017900030B585B004460D46208A4CF6FF710840EE
:1017A000E98801432182A0894EF6F3110840A988F7
:1017B0002A8911436A8902431143A181A08A4FF605
:1017C000FF410840A9890143A1826846FFF702FC56
:1017D0001D48844201D1039800E00298A1890904C0
:1017E00008D500EBC00101EB001029684900B0FBEF
:1017F000F1F007E000EBC00101EB0010296889005F
:10180000B0FBF1F06422B0FBF2F109010B096FF0BB
:1018100018056B4300EB8300A3891D044FF03203CE
:1018200007D503EBC000B0FBF2F000F0070008435F
:1018300006E003EB0010B0FBF2F000F00F000843ED
:10184000208105B030BD0000003801408088C0F321
:1018500008007047FEE700000FB4054B10B503A960
:10186000044A029800F0CAF810BC5DF814FB0000AE
:10187000D12100085002002002E008C8121F08C150
:10188000002AFAD170477047002001E001C1121F01
:10189000002AFBD1704700002DE9FF5FDDE902203F
:1018A000010DDDF838B0024318D044F61050A1F213
:1018B000FF3141430D140F98012820D0A5EB0B00F8
:1018C000401C5FEA000A4FF00004474EDFF81C910D
:1018D000A046504616D5CAF1000728E00F9801240B
:1018E00043A2012808D0002100980F9BC0E90021E5
:1018F000C0E90243BDE8FF9F6FEA0B01F4E7CBF1BB
:101900000000DEE7074612E0F80707D0224633461C
:1019100040464946FEF797FD8046894622463346B3
:1019200010461946FEF78FFD04460E467F10002F25
:10193000EAD1DDE90201BAF1000F42464B4602DA74
:10194000FEF781FD01E0FEF7F0FD04460E460022A1
:10195000284BFEF7C7FF03D84FF0FF30014607E0E2
:101960000022254B20463146FEF7C6FCFEF7A2FFBB
:10197000102409E0002C0ADB0A220023FEF7B4FE43
:10198000019B30321A55641E50EA0102F2D1641CE8
:10199000019AC4F1110314440F9A012A03D00122C1
:1019A00008430DD10AE0084304D000204FF0110B8A
:1019B0000F9080E7A3EB0B056D1E0DE05B4504DD8A
:1019C0004FF0000205F1010504E003DA4FF00002D8
:1019D000A5F10105002AECD000980F99C0E9023169
:1019E000C0E9004586E70000000024400000F03F09
:1019F000300000000000F0430000E03F2DE9FF4F01
:101A000095B09B468946064600250FE2252877D1EA
:101A100000242746F84A0121059400E0044316F803
:101A2000013F203B01FA03F01042F7D130782A2819
:101A300011D06FF02F033078A0F13002092A16D8A8
:101A4000059A44F0020402EB820203EB42021044C6
:101A5000761C0590EFE759F8042B0592002A03DA6B
:101A6000504244F40054059044F00204761C30784F
:101A70002E2816D116F8010F44F004042A280DD0A0
:101A80006FF02F023078A0F13003092B09D807EB53
:101A9000870302EB4303C718761CF3E759F8047B6E
:101AA000761C30786C280FD006DC4C2817D06828BC
:101AB0000DD06A2814D104E0742810D07A280FD1F0
:101AC0000DE044F400140AE044F4801401E044F40E
:101AD00040147278824202D104F58014761C761C80
:101AE000307866280BD013DC582877D009DC002822
:101AF00075D04528F6D04628F4D047281AD19DE164
:101B000018E0632835D0642879D0652812D195E192
:101B1000702873D008DC6728F1D069286FD06E2850
:101B20000DD06F2806D1B5E073282CD0752875D05C
:101B3000782874D05A46179990476D1C75E1C4F304
:101B40000250022809D003280DD0D9F8001004282B
:101B50000DD00D6009F1040967E1D9F80010EA170A
:101B6000C1E90052F6E7D9F800100D80F2E70D70D8
:101B7000F0E719F8041B8DF8001000208DF8010023
:101B8000EA46012003E059F804AB4FF0FF3061074B
:101B90004FF0000102D40DE008F101018846B9427E
:101BA0000FDA8045F8DB1AF808100029F4D108E0B4
:101BB00008F1010188468142FADB1AF80810002971
:101BC000F6D105985B46A0EB080721463846179AE0
:101BD00000F094FA284400EB080507E04DE029E105
:101BE0000DE01AF8010B5A4617999047B8F1010811
:101BF000F7D25B4621463846179A13E142E00A22A3
:101C00000092C4F302524FF0000A022A08D059F899
:101C100004CB032A4FEAEC710AD00DE029E02AE058
:101C200009F1070121F00702F2E802C1914609E03B
:101C30000FFA8CFC4FEAEC71042A03D14FFA8CFCAA
:101C40004FEAEC71002907DA0A460021DCF1000CAA
:101C500061EB02012D2202E0220504D52B228DF832
:101C60000420012203E0E20701D02022F7E790469A
:101C700059E00A2102E010220DE010214FF0000A85
:101C800000910BE010224FF0000A44F004040827F2
:101C9000009203E008224FF0000A0092C4F30252BF
:101CA000022A05D059F804CB0021032A08D009E004
:101CB00009F1070121F00702F2E802C1914605E0AF
:101CC0001FFA8CFC042A01D10CF0FF0C4FF0000825
:101CD000220728D5702806D0009B83F0100353EA12
:101CE0000A0305D00EE040228DF80420012208E00E
:101CF0005CEA010206D030228DF804208DF8050040
:101D000002229046009B83F0080353EA0A030AD19B
:101D10005CEA010201D1620705D530228DF804206A
:101D20004FF001087F1E582804D034A003900EA85D
:101D300002900DE036A0F9E753466046009AFEF7A0
:101D4000D3FC84460398825C0298401E0290027085
:101D50005CEA0100F0D1029806A9081A00F1200AF5
:101D6000600702D524F4803400E00127574502DDE6
:101D7000A7EB0A0000E0002000EB0A0100900598A4
:101D80004144401A0590E00306D45B462146179A69
:101D9000059800F0B3F90544002706E001A85A466B
:101DA000C05D179990476D1C7F1C4745F6DBE0032B
:101DB0000CD55B462146179A059800F09FF905441B
:101DC00004E030205A46179990476D1C0099481E30
:101DD00000900029F5DC08E0029802995A46007844
:101DE000491C0291179990476D1CBAF10001AAF1A4
:101DF000010AF1DC65E100000928010030313233CD
:101E00003435363738396162636465660000000036
:101E10003031323334353637383941424344454620
:101E20000000000000F058F90544761C30780028C6
:101E30007FF4ECAD19B02846BDE8F08F620700D4FE
:101E4000062709F1070222F0070CFCE80223E1460D
:101E500003F000485FEA080C02D00FF2702C0DE08E
:101E60005FEA045C02D50FF2682C07E05FEAC47CED
:101E700002D00FF2602C01E0AFF2700C4FF0FF388F
:101E800023F00043CDF850C065280CD006DC45286F
:101E900009D046281DD047283DD13DE0662818D0FE
:101EA00067287ED138E00021112F01DB112000E0EE
:101EB000781CCDE9000106A90EA8FFF7EDFCDDE9CD
:101EC0000F010E9A03910021009207F1010A04917B
:101ED0004DE04FF000400097CDE9011006A90EA893
:101EE000FFF7DAFCDDE90F0203920E9B1199002245
:101EF000DDF80CA00093049211B9791C00EB010AE3
:101F0000B7EB0A0004D4C0F1FF3007F1010A0490D6
:101F1000AAEB0700019044E0012F00DA012700211D
:101F2000112F01DD112000E03846CDE9000106A99E
:101F30000EA8FFF7B1FCDDE90F010E9A0391002115
:101F400004910092BA4621070CD40399514500DA56
:101F50008A46BAF1010F05DD009AAAF10101515C30
:101F6000302908D0B84202DA10F1040F06DA012154
:101F7000CDE9011015E0AAF10101E9E7002805DC2F
:101F8000049901440491AAEB000102E0411C51456F
:101F900000DD8A460499401A401C01904FF0004031
:101FA0000290200704D40198504501DBCDF804804D
:101FB00000208DF84F0002980DF14F07B0F1004F4F
:101FC00025D02B200E9002984FF0020800280CDA42
:101FD000404202902D200E9007E00A210298FEF761
:101FE0006DFB3031029007F8011DB8F10001A8F136
:101FF0000108F2DC02980028EFD1791E0E980870D3
:10200000307800F0200040F0450007F8020D12A8DB
:10201000C01B00F107081498007800B1012000EB04
:102020000A01019801EBE07105984144401A401EF5
:102030000590E00306D45B462146179A059800F008
:102040005DF805441498007818B15A4617999047DE
:102050006D1CE00324D55B462146179A059800F0D5
:102060004DF805441CE00498002807DBDDE9030176
:10207000884203DD0098405C179901E017993020F1
:102080005A469047049805F10105401C04900198B8
:10209000401E019004D12E205A46179990476D1C7E
:1020A000BAF10001AAF1010ADDDC05E017F8010B25
:1020B0005A46179990476D1CB8F10001A8F1010824
:1020C000F4DC5B462146179A0598ABE62D0000002C
:1020D0002B000000200000002DE9F04104460025FF
:1020E0001E461746880404D405E039462020B04730
:1020F0006D1C641EF9D52846BDE8F0812DE9F0413C
:10210000044600251E469046C80301D5302700E04E
:102110002027880404D505E041463846B0476D1CA9
:10212000641EF9D52846BDE8F081000010B56FF0B7
:102130000400FFF7A9F8094809490068B0FBF1F06D
:102140000849C0B2087000EB4002C2EBC0104FF665
:10215000FF7202EAC000488010BD000000000020AD
:1021600000127A00480200200B49498848434FF08A
:10217000E021486100238B61086940F0010008619B
:102180000869C20701D0C003FAD5086920F0010030
:1021900008618B6170470000480200200B490978F4
:1021A00048434FF0E021486100238B61086940F00B
:1021B000010008610869C20701D0C003FAD50869A7
:1021C00020F0010008618B61704700004802002088
:1021D00004490A885206FCD5024AC1B2121D118078
:1021E0007047000000380140FEF7B9FE4FF4FA7462
:1021F0000020FEF74BFEFEF71DFA02460B460121BA
:102200000EA0FFF729FBFEF7DFFD05462846FEF787
:1022100011FA02460B4601210DA0FFF71DFB2846CF
:10222000FEF79AFDFEF706FA02460B4601210BA0C7
:10223000FFF712FB2046FFF797FFD9E7566F6C7444
:102240006167653A2025342E3366560D0A0000007A
:10225000523A2025342E33664F0D0A0054656D70B6
:10226000657261747572653A2025342E3366A1E675
:102270000D0A000070B586B00546012144F2040045
:10228000FEF79AFE4FF40070ADF8140003248DF8A9
:10229000164018218DF817101C4E05A93046FEF780
:1022A000FDFC3115ADF8141004218DF8171005A9A7
:1022B0003046FEF7F3FC25208DF800008DF8014034
:1022C0008DF8024001208DF803006846FEF70AFEF3
:1022D00001950020ADF80800ADF80A00ADF80C003B
:1022E000ADF810000C20ADF80E00094C01A92046F5
:1022F000FFF74EFA012240F225512046FFF72CFA53
:1023000001212046FFF7FCF906B070BD000801402E
:10231000003801403423000800000020680200005B
:10232000580900088C25000868020020C804000035
:1023300088180008500600A24A04000100FF0001AE
:10234000020304060708098CDBAE424D93A54290B8
:10235000E09C429AB79442C60D8D427FD985424097
:10236000247E42705F71421E5665424AFB5942F814
:10237000424F4219224542D98E3B42CC7F32428B9A
:10238000EC294250CD2142091B1A42D9CE1242B744
:10239000E20B421A510542F628FE41F706F241F7D8
:1023A00086E641F39FDB415249D141E17AC7410EB4
:1023B0002DBE41E258B5419AF7AC41AA02A5418829
:1023C000749D4145479641F7758F414AFB8841F21C
:1023D000D282416FF0794170CE6E411D386441AFB9
:1023E000255A41979050414772474133C43E419D21
:1023F00080364134A22E41A323274100002041CA48
:1024000032194117B71241A0890C41E3A50641C812
:10241000070141B459F7402D21ED40E561E340A9A2
:1024200013DA403333D14024B9C84062A1C040041C
:10243000E7B8401F85B1409A77AA405EBA104AA318
:1024400040234A9D40FF2197407D3F9140569F8BFE
:1024500040713D8640591781403255784079E96E88
:102460004054E3654020415D4050FC54409D114D77
:10247000401C7C454086383E40F2413740BC963097
:1024800040F9312A400612240810761E408A8E1820
:1024900040BB271340A1F80D40F4FD0840B53704B8
:1024A000403945FF3F107AF63F5F07EE3FE2E9E52E
:1024B0003F4F1EDE3F62A1D63FD26FCF3F5986C845
:1024C0003FB1E1C13F917EBB3FB459B53F1973AFF6
:1024D0003F33C4A93F014DA43F3D0A9F3FE7FB990D
:1024E0003F711B953F226C903F6DE78B3F508D876E
:1024F0003FE86A833F17D97E3F7424773F5BB16F13
:1025000044103E683F5396613F48E15A3F38675454
:102510003F96214E3FF016483F2A3A423FD1913C28
:102520003F5917373FC1CA313F7AA52C3F82E22776
:102530003FC139233FC4B11E3FFE431A3FFDF6158C
:1025400070903C113F2DB20D3F5EBA093FC6DC05CD
:102550003FF31F023FADFAFC3EE2E9F53E840DEF8A
:102560003E9565E83EF7E4E13EE3A5DB3E228ED5ED
:102570003EB29DCF3ECCEEC93E1D5AC43E0001681E
:0C25800005020406085069540000000029
:0400000508000145A9
:00000001FF
